:20000000A03A0120611B010039FB021039FB021039FB021039FB021039FB021039FB0210C4
:1C00200039FB021039FB021039FB021039FB021039FB021039FB021011FB021002
:20003C002C3F0020383B0020A43E0020183C0020382800205C3D0020343F0020EC3D0020FB
:20005C00B43E00207C3C0020FC1B0000AC1F000044200000C81F0000BA1F0000C43E002072
:20007C00982600209C260020A0260020A4260020A8260020AC260020B0260020B426002004
:20009C00B8260020D43E0020AC3B00207C3E0020A83C002016170000A416000088170000A9
:2000BC00FA1700006C180000881E0000F01F0000E41F0000753F0020083F0020C428002090
:2000DC00083E0020F0270020F73A0020423F00204C3C0020903E00204C230020BC2600204E
:2000FC002415000027120000641A0000C02100208C1F0000543700206C3F0020683F00200B
:20011C00C0260020C4260020603F0020841B00003C3E0020D4380020F83A0020B81900006C
:20013C0008290020483F0020583F002070200000C820000064260020BC320020EC2900208F
:20015C00014A031049480310D54903101547031001CE00005D49031081470310A146031084
:20017C009548031045450310254A031021440310ED47031099490310E148031021490310E7
:20019C005553031089520310CD520310655003108D4E0310A9D2000071E6000029070100AF
:2001BC007168000059510310ED50031045C60000CD4B03102952031011530310A9550310F1
:2001DC007555031069530310DD55031035550310ADCE000021540310855C03100D56031008
:2001FC004D5D0310A9640310B55B03106D570310E5610310095E0310C55803108560031011
:20021C0071610310B16203109963031055630310FD600310B15E031081C20000D55A0310C6
:20023C00D559031009630310D963031019640310555F0310C56403104D6203107164031056
:20025C008D64031055640310E16403102975031079720310A16B0310F57203109D740310EE
:20027C00797403102D74031061730310FD7303105574031015750310D96C0310FD740310EF
:20029C005D920000E17403103D75031079700310F9640310CD6803102D710310C174031079
:2002BC00F56E0310B973031029670310056E0310C56F0310E1710310A1770310797D031064
:2002DC003D7E031049750310157E0310357D031099760310997C0310257B031071780310FF
:2002FC00B57D0310ED7C0310857E03102D790310B97A0310917B0310B1790310ED7B031035
:20031C00E97D0310617E0310357A0310D57E0310457C0310A57E0310BD7E0310ADB8000071
:20033C00D9800310E97E031049830310898403108D8103107D820310E58403102B8403104B
:20035C00C5830310918703106188031045880310F1850310B18803107D880310C9880310CE
:20037C001D870310A186031001850310E188031099880310F987031085C50000359C031066
:20039C00819D0310E99A0310359B0310C19B0310419A0310F18803101D8C0310618F0310EF
:2003BC00F1940310919E0310C19E03103D9E0310699E0310259E0310619D03100D9E031028
:2003DC00819B0310ED93031055990310C9970310D9980310BD950310959C0310C19D03102D
:2003FC00A59E03107D9E0310C9910310C1E40000699C0310DD9D031095900310FD9B0310C3
:20041C00CD990310158E0310019D0310E19C0310219D0310419D0310BD9C0310F59D03107D
:20043C00A19D031055980310E1920310999A0310B99E0310559E0310853F0100A159010053
:20045C0039A203102355010069A1031075A20310C59E0310B9A10310F9A1031015A1031079
:20047C009DA20310B5630100C7A900002DC9000089370100E96201005947000031A90310F5
:20049C00ADA20310B1A70000B9A8031099A50310ADAF000039A803106DA9031089A6031006
:2004BC006DAC031099B1031009AF031059B1031001B103109DA9031001EE0000B9E0000009
:2004DC00A72D010021D70000097E05005D1F0100F5D3000081700000C9AC000041B4000007
:2004FC0011BC0000F1B9031075BA031081BB0310893C0100BDF300008D14010065BF000089
:20051C00A5390100990F010021450100FD0F0100513C0100F94E0100755801002D140100DD
:20053C00412C010055400100D923010035DA00001D5C010099FC0000752E01004D5C010032
:20055C00F5700500596D00001D6A00006D7C0000E9C60310755F000039A00000715E0100A0
:20057C00113E0100875901000D1601005B650100BB5901005D5E01000366010039180100BC
:20059C00A5E80000E1E5000001000000000000000000000000000000FFFFFFFFAC290020FA
:2005BC000400000000000000000000001400000030FD021018000000A8200000640600007E
:2005DC00842900200400000000000000000000002400000018FD021018000000855D0100E8
:2005FC00080000005407000018060000C1C8021001BB021091EB0210DDE5021081E0021020
:20061C00B9E5021071E50210310000000100000001000000FC20000000000000FFFFFFFF5B
:20063C00A429002004000000000000000000000028000000B8FC0210240000001E0000007D
:20065C001800000000000000CC080000780600009BEC021025E2021005EB021025DE02104B
:20067C00FDE10210E1E402102F00000034000000240028000000000098280020FFFFFFFF0C
:20069C00CC290020040000000000000000000000380000006CFC021028000000010000004A
:2006BC00100000000000000000000000F7F1021000001A001000000003000000382000008F
:2006DC004D200000080000003600000058280020F826002009001D00EB110100F825002015
:2006FC000100000000001200FFFFFFFFBC29002004000000000000000000000010000000B6
:20071C0048FD0210180000000000000000001300FFFFFFFFD429002004000000000000001E
:20073C000000000054000000A0FB02103C000000000001002D000000A80500007705010008
:20075C003000000025650100540700007C07000059D20210D9DB021059EC0210CDD60210D5
:20077C0085DE02104DE5021029E5021030000000000016000000000000000000FF7F0000C0
:20079C0064240020FFFFFFFFB429002004000000000000000000000058000000DCFB021057
:2007BC003400000039FB021001002F00060000000000000020000000010000001BF8021027
:2007DC0028000000CC080000F407000093EC02106DEB02104DEC021029E00210BDE40210F2
:2007FC0099E402102D000000000000008C2900200400000000000000000000001000000038
:20081C0040FC02102C000000000000000000030000000F003C0000000000000000000000F4
:20083C002FF902101000000008000000F41E0000FFFFFFFFC429002004000000000000002B
:20085C00000000001C000000DCFC021024000000E0070000742900200400000000000000AA
:20087C00000000000C00000000FD0210180000006B1601000000000000000000080000009F
:20089C000100000004000000000000000000140000000000B41A0000000019000000180024
:2008BC0024000000336601000040000000020000A80500000000100055F002100C000000FC
:2008DC00C1A80000000000006C2900200400000000000000000000002000000010FC02109C
:2008FC0030000000CC1A000001000000056501000705010000000000000017000002000034
:20091C0031000000000023000000150001000000640700009C2900200400000000000000FD
:20093C00000000002000000094FC021024000000E41A00004029002020000000D41C00001E
:20095C00CC360020743B002054290020243F0020102400203C3F002098140000FC3E002075
:20097C004036002058380020B43A002034290020E729002068200000090803100101031099
:20099C00890903105D0303100105031089060310D1080310210A0310810B0310810A031001
:2009BC00110B0310510B0310D10A031029100310610D0310890E0310050E0310B50F03101B
:2009DC00D10B0310511003103D10031065100310FD0E0310ED0F0310B50C0310650F031028
:2009FC00111003106910031009120310F5120310AD110310291103105D120310B11203105D
:200A1C0019250310552703108D240310F12603100528031089260310CD2303105928031053
:200A3C00ED1F0310251303100D210310911D0310B12703100D2203109925031019260310DE
:200A5C00A91B0310CF2803109528031039290310052903106D29031099160310C91E0310AE
:200A7C007D1903100D230310C92C03101D2C0310292D0310B52B0310F52C03109D290310A1
:200A9C00CD2A0310452B0310472D0310112D0310412D0310752C031029340310C138031024
:200ABC0071360310A12E0310813303106D380310A93A03103D3A0310C53403101138031017
:200ADC00753A03104D2D031009320310E12F031015390310F939031019310310B13703103C
:200AFC00F5350310B13903105D350310C5320310E5360310693903104D370310253D031002
:200B1C00413D0310F53C0310C93A0310A53C03109D3D0310593D031019430310CD3D0310B8
:200B3C00A14303104D400310093F031061420310CD400310C9430310E5430310C93F03105C
:200B5C0011440310FD4303101F440310A942031019420310E1420310C141031075430310C6
:200B7C0049430310494103101B440310AD0B03109F650100A3650100AF6501001364010045
:200B9C00B3650100AB650100A7650100BB650100B76501004C3F00206D400021D740002113
:200BBC0099400021F940002105410021114100212941002141410021074C657900F009F89B
:200BDC0061796940490703D50121044A8903116070BD70B5024908478003002108110440F4
:200BFC002D59000000F019F8E1B26C290BD0042801D0062807D10E490978C90703D1217837
:200C1C00090700D402200B490A780C21114202D0094980220A6003B0F0BDF0B583B00749A4
:200C3C0008470448017840229143017004480047C80000213301002100E200E041160300F0
:200C5C00231B030000F082F800480047577F000000F082F8004800471B880000094B1A78E6
:200C7C000824A243002800D022431A70004A1047838E000003490878000701D40248004775
:200C9C0070470000800300215F7E0000044A282090470448012141600348044A41601047F3
:200CBC004F42000000500440006004408542000070B51F4D2878C4B21E48804728780328E9
:200CDC0034D1032C32D01C488068400DC2071A48014660318030002A03D01F240C57458806
:200CFC0002E01E240C570588002C1FD01348154A4169007941434810114949694018104933
:200D1C004039497F904740054015694288420DDBA8420BDC0C4B996988B20246090C624342
:200D3C0009045212801880B20843986170BD0000E40200217941000028000021800300213D
:200D5C0000030021CB81000040400440806B0C490007000F48717047094A0A4918235079D3
:200D7C00CB56497EC018814201DD084602E00F2800DD0F20D189090909010143D1817047C0
:200D9C00E0020021880000213C202020202020434F4E4649475552452020202020203E00EF
:200DBC003C2020202020205345542050414E49442020202020203E003C20202020534554FD
:200DDC00204348414E204D41534B202020203E003C2020202020534554204E574B204B452B
:200DFC005920202020203E003C2020202020204241434B2020202020203E00C03C20202039
:200E1C004E4554574F524B20414354494F4E532020203E003C20202020202020464F524D6D
:200E3C00204E574B2020202020203E003C202020202020204F50454E204E574B20202020AA
:200E5C0020203E003C20202020202020434C4F5345204E574B20202020203E003C202020DC
:200E7C002020202020204150502020202020202020203E003C202020202053454C454354BB
:200E9C002053454E534F522020203E003C20534554205245504F525420494E544552564121
:200EBC004C203E003C202020202053454E4420544F47474C4520202020203E003C205345B2
:200EDC004E44204449534153534F43494154494F4E203E003C202053454E442054595045C1
:200EFC00205245515545535420203E0020544920436F6C6C6563746F722000C03C2020200F
:200F1C0020202048454C502020202020203E00C00020202020202020202028282828282066
:200F3C0020202020202020202020202020202020208810101010101010101010101010100D
:200F5C001044444444444444444444101010101010104141414141410101010101010101BF
:200F7C0001010101010101010101010110101010101042424242424202020202020202024D
:200F9C000202020202020202020202021010101020000000000000000000000000000000BD
:200FBC00000000000000000000000000000000000000000000000000000000000000000015
:200FDC000000000000000000000000000000000000000000000000000000000000000000F5
:200FFC000000000000000000000000000000000000000000000000000000000000000000D5
:20101C0000000000000000000000000000000000000097B92EE5725CCB5DCAE473B82F0152
:20103C0096BA2D03945FC8E671E7705EC90295BB2CE3745ACD0691BF28BE2907905BCCE283
:20105C007559CEE077BC2B05920493BD2AE17658CF51C6E87FB4230D9A0C9BB522E97E50D6
:20107C00C7EB7C52C50E99B720B6210F9853C4EA7DB2250B9C57C0EE79EF7856C10A9DB3C1
:20109C0024089FB126ED7A54C355C2EC7BB027099EA2351B8C47D0FE69FF6846D11A8DA354
:2010BC0034188FA136FD6A44D345D2FC6BA037198E41D6F86FA4331D8A1C8BA532F96E40C7
:2010DC00D7FB6C42D51E89A730A6311F8843D4FA6DF3644ADD1681AF38AE3917804BDCF292
:2010FC006549DEF067AC3B15821483AD3AF16648DF1087A93EF5624CDB4DDAF463A83F1105
:20111C0086AA3D13844FD8F661F7604ED91285AB3C00CD2A031000452B0310021F44031030
:20113C0000FD430310011F44031000FD43031003D10B031000FD430310045110031000FDBC
:20115C0043031001472D031001412D031001FD43031001FD43031001FD43031000752C0373
:20117C001001FD43031001FD43031001FD43031001FD43031002472D031002412D031002E5
:20119C00FD43031000752C031002FD43031002FD43031002FD0E031002FD43031004651094
:2011BC00031000FD43031003472D031003412D0310031F440310031F44031003FD43031057
:2011DC0003D10B031003FD43031000752C031003FD43031003FD43031004472D031004417B
:2011FC002D0310041F440310041F440310041F440310046510031004FD43031004FD4303FB
:20121C0010043D10031000752C0310000136360101000102010001030100010401060608F8
:20123C000400000C0100340D01000F10040101140100FF1608000020020000220100FF2381
:20125C00010001240100FE250100082602000028010001290100012A0200002C01000F2E0C
:20127C000200003001000131010008320200FF34010007350102FF36010000370100013896
:20129C00010001390100FF3A01000F3C0200FF3E01010F3F0100014001041F4101000142F7
:2012BC000100FF43010080440800004E0100084F01000F50010001510100FF5201000A53F9
:2012DC0001008954010001580400005C0400006004000064040000680400006C040000703E
:2012FC0004000074040000780400007C040000800100FF81010001820100018301010284C8
:20131C00010001FFF0290020773F0020783F0020F1290020433F0020F2290020F329002077
:20133C00C1630100C5440000755B01004149010091440100B11F01000520010039F300000E
:20135C0089230100354C010061440100392301009F640100855E010089510100B93F010083
:20137C008D4E0100E948010015490100ED3F0100C144010011EF000049CB00009F4A0100B3
:20139C00E9220100CD1301009D630100A963010093BE00000558010067DE000099D90000D0
:2013BC00F92B010031E9000021400100CD63010049530100D55B01000B660100E1390100E4
:2013DC00D17D00000953010049EA0000D53301000308000000000000000000000001640397
:2013FC00000000000000000005380000000000000000000000000000000000000000000094
:20141C00000000000338000000000000000000008201081014000084000000004E9055000F
:20143C0000000000073800000000000000000000000121030F008000520798E00800C810EC
:20145C00802700206403008005000000043800000000000000000000000188F94E905500CC
:20147C0000000000FF0710580000FC010000000000000000000000000000000000000000E5
:20149C00000000000000000000000000000000000000000000000000000000000000000030
:2014BC00000000000000000000000000000000000000000000000000000000000000000010
:2014DC000000000000000000000000000000000000000000000000000000000000000000F0
:2014FC000000000000000000000000000000000000000000000000000000000000000000D0
:20151C000000000000000000360001000600000000000000000F0000000000000000000063
:20153C000000000000000300FFFF00000403FFFF0000FFFF0F00E8030005401F0310000119
:20155C0001000000FF3F0F0008000E0000000000000000000300010F0000090100000000EE
:20157C0000000000000000000000000000000000000000000000000000000000000000004F
:20159C000000000000000000AD000001000000000000000000000000000000000000000081
:2015BC0000000000000000000000000000000000000000000000000000000000000000000F
:2015DC000000000000000000000000000000000000000000000000000000000000000000EF
:2015FC000000000000000000000000000000000000000000000000000000000000000000CF
:20161C00000000000000000000000000000000000001040000333333333333333300000011
:20163C000000000000000000000000000100000000000000020000000000000003333333EF
:20165C0033333333330301000000000000000000000000000000FFFFFFFFFFFFFFFFFFFF75
:20167C00FFFFFFFFFFFF014648546573740000000000000000000000000000000000000025
:20169C000000000000000000010171010101010111010101310101010101800100011001D9
:2016BC0061013B001400630173017201620143010001130106013D013500040112010001C3
:2016DC0000010001000104010401330133013C0144013201360000010001650100013500F0
:2016FC00810100010501820183010001660100010001080109010A010B0103007100300105
:20171C0060001100700031022003500480000700100061000000140063007300720062006C
:20173C004300000013000600000000000400120000000000000000000400040037003700A5
:20175C003C02440000000000000000006500000035008100000005000000830000006600E2
:20177C0000000000080009000A000B0003027102300160021102700201020202020280020A
:20179C000002100261023A00410063027302720262024302000213023800000200020402EB
:2017BC001202000200020002000204020402370037003C024402000239000002000265024D
:2017DC0000023502810200020502820283020002660200020002080209020A020B0201037F
:2017FC007103010301030103010301032203020301030003100300030003000300030003F2
:20181C00000300034203000324030603000300030403120325032303250323030403040362
:20183C000003000300034403000300032303000365032100350381030003050300030003B7
:20185C000003000325032303080309030A030B03030471040204600411047004020402046B
:20187C0001040204000410046104000414046304730472046204430400041304060400047E
:20189C000004040412040004000400040004510464000004000400044404000400040004E1
:2018BC000004650400043504810464000504000483040004660400040004080409040A0448
:2018DC000B040001535901009D5D010001E7000095310100C9510100D1DA000035FB00008F
:2018FC00A3500100E9510100CF460100FD460100D13601008D4101003D5A0100C9160100F4
:20191C005D250100A50D010025170100DBFD02101D4F010011DC02108DE7000031630100D9
:20193C00C5490100D95F0100ED5F0100AD580100755D0000358C000000000000000000005D
:20195C00000000006D5A0100115F01006DFE0000D55E0100436501003D650100255F0100C2
:20197C0000000000CB640100FD010100510601007957010091DF00007760010089B9000069
:20199C005157000069EC0000C952010000000000591A010025570100E1D500000000020069
:2019BC000000020002000200000032000400010000000200000000000000000005000100C6
:2019DC0000000700060001000000030007000800000000000F0001000100FF0010000800A3
:2019FC0000000000180008000000000022000200000000008F0000008F0001008F000200D7
:201A1C008F000300900000018F00010190000002900000038F0001048F0000058F0008040E
:201A3C008F0000048A000006510000007F0001003F0004003F0002003F0001007F00020051
:201A5C008F0002048F00010238C40D00C80000008100000032000F0100C50D00900100004C
:201A7C004000000096000501952B0D00C80000002200000032000F02000000000000000074
:201A9C000000000000000000000000000000000000000000000000007B7374617469632DFA
:201ABC00696E7374616E63652D6E616D657D00C07B656D7074792D696E7374616E63652D51
:201ADC006E616D657D00C0467B756E6B6E6F776E2D696E7374616E63652D6E616D657D006E
:201AFC004D1901001FF9021045F8021059F802106DF8021081F8021095F80210C1F700002E
:201B1C00B1450100D53501007D3E0100D14F010015600100A9540100A13D0100A96201006B
:201B3C006D5D010009050100215E0100BD600100B7620100AD600100B36401001365010058
:201B5C000D65010000000000000000000000000000000000000000000000000000000000F6
:201B7C005562010047620100C003000080070000000F0000001E0000003C000000780000BC
:201B9C0000F0000000E0010000C003000080070000000F0000001E0000003C00000078002D
:201BBC000000F0000000F0001404C0A0FE0000001404C0A00A0480A0090480A00840008018
:201BDC00FE0000000D0480800C4000800F2000800E2000800604808007048080FE0000009E
:201BFC000000000002000000020000000A00000002000000020001000000000000000000B6
:201C1C0000000000000000000000000000000000000000000E000000C364010031650100DB
:201C3C00E1420100995601000D1E0100B556010041F40000FD2E01001963010025910000A8
:201C5C00B5F200006D0E0100D3640100097B0000B18E00004965010041260100CDB70000AF
:201C7C004F6501009DE30000540700009C1C0000BD610100CD610100ED610100DD61010024
:201C9C0041460100195001001D4A01003200000000B000401400000034000000FF00000065
:201CBC00000000000D0CFFFF3C3D002020000000010300000000000015F9021001E602101B
:201CDC002DDA021045E7021041D10210C9D30210A5DF02102DE4021061EA0210153601005D
:201CFC000303001B5B324A1B5B32301B5B3F32356C001B5B324A1B5B32301B5B3F32356C1E
:201D1C000000000000000000FFFFFFFFFFFFFFFF00000000000000000101010100C20100E8
:201D3C000300000000000000CC080000581D00001F660100BDE9000055FF0000E145010094
:201D5C00F54F0100F14901002E0000000000000000000000000000000000000000000000B9
:201D7C00000000000000000000000000FFFFFFFF0000000000000000000000003A013A01D5
:201D9C00000000000000000000000000000000000000000000000000000000000000000027
:201DBC00000000000000000000000000441D00007C290020040000000000000000000000DD
:201DDC0020000000A01E000018000000841C00009429002004000000000000000000000070
:201DFC0014000000241E00001C0000001404C0A0FE0000001404C0A00A0480A0090480A00C
:201E1C0008400080FE0000001C0000000000000000000000381E0000000000000800000066
:201E3C00000000004E42434E00FFFFFFFFFFFFFFFFFFFFFFFFFFFFFFFF0100000100000073
:201E5C0040420F0001000000000000000000000000000000000000000000058000000680C9
:201E7C0000000780000000000000000000000500BD00B700B100BC001C003000380008004D
:201E9C0038010200180000000000000000000000B01E00000800000000000000F8280020BD
:201EBC00E82800200400000004000000FFFFFFFF0000000031C000006D5901000101010017
:201EDC000000000000000000060000000200000086000000820000000100000000000000D5
:201EFC00000000000000010000000100001610160E18151C02120324185803021002580116
:201F1C00000100010203000100010001020001020200000000000000FFFFFFFF0000000098
:201F3C0078390020DE180000A0390020DF18000005000000D0070000C8000000FF0000002B
:201F5C0088350020CC200000E4350020CE2000000200000000000000FFFFFFFF0000000077
:201F7C000000000020000000400000006000000088B224008813000010000000000000017B
:201F9C000000808000008084002080840040808400A6AAACA4A9A9A399B19ABCB6A83131C4
:201FBC0018191A22311C1E2031313431313117191A21241B1D1F313133310104FF00000034
:201FDC0000000000000100000C0E020B040B0A070800110F000120181A18182C34041E0070
:201FFC00341C0000643F002098200000FF00010000000000000000005C1C00000831002029
:20201C00AC1C000000000080002000800040008000000080000400800008008025DD02105C
:20203C0031C8021075DF021002040201010101090200000000BE040A00BE02080102000362
:20205C0002000103FFFFFFFFFFFFFFFF35452515020305040004081000040810243E0020EA
:20207C001F130000E803000000006400FF00000000000000671C0100D765010000E004001F
:20209C00008000000000000008000000000000000000000010040810181C100008101820DC
:2020BC0004040810181C00000102030400010509020103010000000010000000010000007F
:2020DC006D650100236601003B00010073650100BD270100B1FA00001B6601000A00000056
:0420FC00555A010030
:202100002DE9F04F4FF0FF084146ADF14C0D0E910F914FF0000910914E46089609960A960D
:20212000AD4C0B9604F1300B0C96E0680D96494611919EE0E068710306AA042314F078F991
:20214000119903AA304613F08BFA02AA3046012113F086FA3046022101AA13F081FA069803
:2021600000F0FF0028709DF81900069F6870C7F30140E8709DF80E30AB702878FF2834D0A1
:20218000BDF80C70FE2830D04FF6FF70B8422AD107A811F017FBE06871034FF088524FF465
:2021A000005314F045F9B8484FF4005750F8041D3F1FBFB2B1F1FF3F07F1885201D1032F02
:2021C000F4D810684FF0010A514600F0FF03FF2B18BF8A46491C000A0529F6DB106007989A
:2021E00013F020FC5744EF8001E01020E8809DF80A00BDF8087028719DF806302F81BDF8A8
:2022000004206B7129786A81E068FF292AD0FE2922D07E291AD07C2912D078290BD0702982
:2022200004D00D99491CC9B20D9120E00C99491CC9B20C911BE00B99491CC9B20B9116E073
:202240000A990F96491CC9B20A9110E009990E96491CC9B209910AE00899B046491CC9B2AA
:20226000089104E009F1010710965FFA87F9761CF6B2E578B54200F31F810D9F002F38D15B
:202280000898022835DA0C98022832DA099802282FDA4D452BD00C98C0B90898A0B90B9871
:2022A0000A99084325D012F061FC854219DCB9F1000F14D094F83200FE2111F0F9FFE57850
:2022C0000120DDF8408015E0012013E0089860B9B9F1000F07D112F049FC854201DC0620E4
:2022E00008E0032006E00220EBE7022002E0119800E004200028A07000F0C880401E49D061
:20230000401E00F0A980401E06D0401E00F09780801E00F093800AE112F028FC05460C2084
:2023200084F83C5015FB00B0817E84F83D10C07E84F83E0008F0B2FEE2782D1895FBF2F05C
:2023400050432D1AE8B284F83200401C90FBF2F15143401A84F831007C2011F0EDFBFF284A
:2023600010D17E2011F0E8FBFF280BD1FF2011F0E3FBFF2806D1782011F0DEFBFF2808BF9B
:2023800094F8310084F833000C2110FB01B0808BE0868BE00F9F08F1010090FBF5F184F877
:2023A00032806943FF2FA0EB0100C1B284F8311014D10E98FF2804D10C200E9111FB00B0C7
:2023C00004E00146880000EBC100584484F83310808BE086ABE0C046602200203A46D0B29D
:2023E000910084F8330001EBC2015944898B1729E18640F29C80C91F01AA89B20BF07EFA07
:202400009DF80F00C0083BD3119F0097BDF81220E18E94F833000323891AC91F01AA89B24F
:2024200005F038FE002840F08280BDF8101000297DD09DF8140010F06BF878E0FEE7119ED4
:20244000B54223DD304609F07DFF6178E578761CF6B201436170F3E708F1010084F8328013
:2024600090FBF5F16943401A84F831005FFA88F009F068FF6070FE215FFA88F011F018FF2F
:20248000119801F0BFFE52E00020001111986D1E84F831000C2184F8325010FB01B184F83D
:2024A0003300898BE1867E2111F002FF94F83200FE2111F0FDFE3AE00C2116FB01B506AA36
:2024C0000423710313F0B4FF1199304603AA13F0C7F8304602AA012113F0C2F83046022182
:2024E00001AA13F0BDF80699163501F0FF0201F0FF00FF2A09D0FE2A07D07E2A05D07C2A89
:2025000003D0782A18BF702A0AD1119F47B9C1F38542032A04D19622B2EB116F3FF422AEF5
:20252000304609F00FFF002860703FF403AE13B0BDE8F08FF1482DE9F04F3CC8ADF1240DFA
:2025400069463CC11DC881E81D00ED4DED4C009505F11006019604F15407029704F13400A7
:2025600003948046049004F17C008246059004F1180006900EF036F88146E348C6608560D0
:20258000E2480021302205460DF0D4FAB9F10E0F0CBF30222822284639460BF099FADC4FB4
:2025A00007F59071DB4B08780126C6F3000262F3C710087097F82A010025A94669F3861032
:2025C00087F82A0197F82A011822214666F3C71087F82A0197F82B01A7F8363140F0E0004B
:2025E00087F82B0107F134000BF072FA97F840001822214666F3C71087F8400007F14C00FA
:202600000BF066FA97F8580007F1F4042022414666F3C71087F8580020460BF059FA97F875
:202620000001C84668F3030087F8000197F8000166F3C71087F8000197F8020166F3C300BF
:2026400087F80201102587F80351A7F8049197F8070120F00F0040F0040087F8070197F8BC
:2026600007013022514666F3C71087F8070107F5A2700BF02DFA97F8500166F3C71087F8F3
:20268000500197F8520168F3000087F85201A24B97F85201A24968F3410087F8520197F823
:2026A000520168F3820087F8520197F8520166F3C30087F8520197F8520168F3041087F878
:2026C000520197F8520168F3451087F8520197F8520168F3861087F8520197F8520166F363
:2026E000C71087F8520197F8530168F3000087F8530197F8530166F3410087F8530197F841
:20270000530166F3C30087F8530197F8530168F3041087F8530197F8530166F3451087F841
:20272000530197F8530166F3861087F8530197F8530168F3C71087F853011868D0F800016F
:20274000C089A7F85C0197F85E0165F3050087F85E01B7F85E0169F38A10A7F85E0197F87A
:202760005F016FF0030220F0F80040F0580087F85F016A4B87F8622197F86301042565F3FB
:20278000030087F8630197F8630168F3041087F8630197F8630168F3461087F8630197F8F8
:2027A000630168F3C71087F863015E481C22C7F864310BF08DF9C7F8804097F888005849B0
:2027C00020F00F0040F0030087F8880097F8880066F3C71087F8880097F88900032464F3BC
:2027E000030087F8890097F88C0066F3000087F88C0097F88C0068F3410087F88C0097F8FE
:202800008C0066F3C30087F88C0097F88C0066F3041087F88C004FF4207AA7F890A06FF067
:20282000520987F88D9097F8920064F3030087F8920097F8920068F3071087F8920097F8E2
:2028400093004FF4FA5B1C2265F3030087F8930007F19800C7F894B00BF03AF93148C7F8A9
:202860009C0097F8A40020F00F0040F0020087F8A40097F8A40066F3C71087F8A40097F800
:20288000A50064F3030087F8A50097F8A80066F3000087F8A80097F8A80068F3410087F80C
:2028A000A80097F8A80066F3C30087F8A80097F8A80066F3041087F8A800A7F8ACA087F8C1
:2028C000A99097F8AE0064F3030087F8AE0097F8AE0068F3071087F8AE0097F8AF0065F389
:2028E000030087F8AF000848C7F8B0B00799016108F032FD09B0BDE8F08FC046681D0000A7
:20290000D8220020EC130000F8240020AC1B0020981A00200080FFFF1401002000C42264AC
:2029200004140000141B00202DE9F04FB34D2989A86BADF12C0D4A081FD3A96C81420CD146
:202940002878012806D10EF0C3FAADF800000FF0D7FB01E010F008F9A86B696C814204D144
:20296000A87880F0010012F0FFFC0020A863012105F1080013F028FA29898808C0F06C817A
:20298000A84C207805F1080B012840F06081606A94F84870E36986001B2F06EBC0061E4425
:2029A00006F1100620D1AF489DA1042212F0B6FA002826D0AB48B4A1042212F0AFFAF0B134
:2029C000A848B4A1042212F0A9FAB0B1A548B2A1042212F0A3FA70B1A248B9A1052212F0F3
:2029E0009DFA002840F02881402F0BDD5B2FBCBF2037FFB206E0FD2704E0FC2702E0FB27C6
:202A000000E0FA27307996F805A0022864D0032840F0C38004F5AE70002140F2A5120DF0BF
:202A200089F804F5FF7304F5BE70049304F5207203900021059233790991032B46D173799F
:202A40007BB90D2F35D14FF0010886F80580B06803681BB1C088099A03A99847CDF8248087
:202A600029E01B2F30D07F2F2ED0FC2F07D0FD2F0FD1B1688888CB881B185B1E04E0B16824
:202A80008888CB881B185B1C93FBF0F242439B1ACB80B068036833B1C088099A0D2F08BFDF
:202AA000012203A9984709980D2F18BF012070710990099850B105983168802211F018FB8B
:202AC000012006F093FA01E0084670717079099A504518BF1B275EE004F5AE70002140F260
:202AE000A5120DF027F84FF0000804F5BE7006904FF0FF31ADF8001004F5FF73ADF80210B9
:202B000004F52072079330790892022842D173792BB90D2F1ED101207071FE201DE00D2FBC
:202B200008D01B2F16D1C14686F80590B36853B1F92005E0C14686F80590B3681BB1FF2035
:202B400006A96A46984784F80190484606F04EFA4FF001087379EBB13846B36813B106A982
:202B60006A469847012006F041FABDF902004FF00108B0F1FF3F0BD0BDF90010B1F1FF3F14
:202B800006D0E08542466270A1850FF075FC01E0002060704246012A4ED0E269616AB7F1AA
:202BA0000D002DD00E381FD0643815D07D38012842D8137A012B3FD0FD2F05D05818401CC8
:202BC000B0FBF3F1594305E0127A5018401EB0FBF2F15143401A2BE0D768A06A002F08BFCD
:202BE000107A09D0E76123E0BAF1000F01D07079F8B1206AE061007A401E19E0E418002052
:202C0000880000EBC10080181430077867B1012F0FD147686FB108463946884709E0C046A3
:202C20001B5B4100A81000204068E061A16200206062002006F0DAF90A48002105220CF0B8
:202C400079FFA06804F14D01052213F00FFC5846022113F0B9F829896889C90802463DD33B
:202C600002E0C046F0100020ADF8000002218DF80810E878E96D05F1080440B3401E22D0EC
:202C8000401E0BD002E0C0461B5B4200401E12D020E0C0461B5B43001B5B4400BDF80000ED
:202CA0000DF06AFCB0B1E86C696DBDF800300DA206F06CFE0EE0684610F006FF0AE0C046A1
:202CC0001B0000000000684608F010FD02E010460FF016FA2046042113F076F80BB0BDE883
:202CE000F08FC0464469736173736F63696174652053656E736F72204572726F72202D2042
:202D0000416464723D307825303478206E6F7420666F756E6400704770B50546EC6B002106
:202D20007422ADF1980D09A80CF004FF14F8010B8DF8240021680DF1250001606168083437
:202D400041602078617813F0D0FBA41CADF82E0041080FD32078617813F0C7FBA41CADF83A
:202D600030002078617813F0C0FBADF83200BDF82E00A41C810808D32078617813F0B5FBF2
:202D8000ADF83400BDF82E00A41CC1080FD32078617813F0AAFBA41CADF8360020786178E7
:202DA00013F0A3FBADF83800BDF82E00A41C010B08D32078617813F098FBADF89400BDF816
:202DC0002E00A41C0109C0F0AA802078617813F08CFBA41CADF83A002078617813F085FB93
:202DE000A61CADF83C003078717813F07EFBB31CADF83E001878597813F077FB9A1CADF840
:202E000040001078517813F070FB961CADF842003078717813F069FBB41CADF844002078D1
:202E2000617813F062FBA41CADF846006178207813F05BFBA61CADF848003078717813F0A1
:202E400054FBB31CADF84A001878597813F04DFB9A1CADF84C001078517813F046FB961CCB
:202E6000ADF84E003078717813F03FFBB31CADF850001878597813F038FB9A1CADF8520089
:202E80001078517813F031FB961CADF854003078717813F02AFBB41CADF856002078617812
:202EA00013F023FBA41CADF858006178207813F01CFBA61CADF85A003078717813F015FB44
:202EC000B31CADF85C001878597813F00EFB9A1CADF85E001078517813F007FB961CADF84F
:202EE00060003078717813F000FBB31CADF862001878597813F0F9FA9A1CADF8640010786F
:202F0000517813F0F2FA961CADF866003078717813F0EBFAADF86800BDF82E00B41C4109B9
:202F200010D320786178A278E37813F0AFF9241D1B906178A2782078E37813F0A7F91C90FC
:202F4000BDF82E00000A28D3241D1DA9062014F8012B401E01F8012BF9D12078617813F063
:202F6000C4FAA41CADF87A002078617813F0BDFAA41CADF87C0014F8010B8DF87E0000206D
:202F800007E014F8012B0DEB0001401CC0B281F87F209DF87E108142F3DC4E49886D4E4C58
:202FA000401C886595F92060E06B12F0C5FCBDF82E20E06C616D120A13D2BDF836200092F1
:202FC000BDF838300193BDF83430029303962B881BA206F0DBFCE06C216EBDF8943028A29E
:202FE0001DE09DF878209DF8776000929DF8763001969DF8756002939DF874300396BDF851
:203000007C600493BDF87A3005969DF87E6006939DF8793007969DF87F601AA2089606F098
:20302000B5FCE66C11F004FAA16D034628A2304606F0ACFC28460EF089FA26B070BDC04661
:2030400053656E736F72202D20416464723D3078253034782C2054656D703D25642C2048EC
:20306000756D69646974793D25642C204C696768743D25642C20525353493D256400C04622
:20308000256400C0414444523A2532782532782532782532782532782532782C2055554979
:2030A000443A3078253034782C204D616E4661633A3078253034782C204C656E6774683AAC
:2030C00025642C20446174613A30782530327800257800C050200020E41800202DE9F04F62
:2030E000C04D2861C0492963C1A10978ADF16C0D4FF0000808A840220170BEA108A88DF84D
:20310000608010F0F5FFB94C4FF0040B20788DF860B0012834D160684FF0FF3154F02EFC88
:20312000E06B01282CD80DF0A1F838BB062610F091F8071C01D1761EF9D1D4F83C909DF859
:20314000603004EB890677658BB1E06B342212FB03FA04EB8000C365504611F014FB6436C7
:20316000306058B13068414652460CF0E3FC09F10100E063606813F08DFB02E0012700E0A9
:203180004746EF6404A812F0A1FFDFF8EC92404604AA494607F0F8FFA864414604AA012099
:2031A00007F0F2FF68644068007811F0B7FC00283AD1286B002837D00269AAB307278DF817
:2031C00008700120ADF80A0002AEADF80C8096E80300904702AE8DF80870286BADF80AB0CF
:2031E0000269ADF80C8096E80300904746468DF808700520ADF80A00286B0269ADF80C606F
:2032000002AB93E803009047761C642EF4DB8DF808702F6B062002AEADF80A003A69ADF855
:203220000C8096E803009047686C494613F074F9684612F017FF0120694607F021F9E863E5
:203240006946404607F01CF94FF4FA71032228640EF0DEFCE86C814611F04CFC002840F03A
:20326000A180864E3068002800F09C80206B4FF0FF3154F083FBD4F830C004F1F40E404698
:203280004FF0FF32714619904F6837B90F6827B9B2F1FF3F08BF021C05E00B68B3427ED0FF
:2032A000199B5B1C1993401C08310428ECDBB2F1FF3F74D0199FD00000EB0E01C1F80490BB
:2032C000002F4EF8006060DD6D49DFF8B89138464FF0010E4BA3012822D1226A8A61106841
:2032E000D160226A08604046177A08610C2017FB002787F808E0177A17FB002282F8098095
:20330000226A177A17FB002207465360226A81F81480107A81F8158010FB07224F46D7602B
:20332000F160DDF864C0377A42464FEA8C0000EBCC00401802610C22866117FB026787F8C4
:2033400008E080F81480377A80F8158017FB026787F80980377A80F8218017FB02677B6018
:2033600002231746327A80F8203012FB07624F4629A6D760444FC661BCF1010F47621ABF4D
:20338000087A401C032008720E462662E661307A401E6062404605F029FE206B00E0604612
:2033A00013F078FA05F1500220A0414607F08EFB05F154021FA0012107F088FB05F1580292
:2033C00020A0414607F082FB05F1600224A0012107F07CFBE86C296D24A206F0D7FA1BB044
:2033E000BDE8F08FE4180020540A0020A810002000C046C031353420436F6C6C6563746F82
:203400007200C0463C2020202020204241434B2020202020203E00C03C2020202020204825
:20342000454C502020202020203E00C053746174757300C044657669636520537461747528
:203440007300C0464E756D626572206F66204A6F696E6564204465766963657300C046C073
:2034600047656E6572696320436E740057616974696E672E2E2E00C0C9530100B825002013
:20348000683A0020355E010061A20000C7482DE9F84F0068DFF8B4A20C469046B830C16998
:2034A000DFF8ACC291F88320BF499946012A00F08A80CA48BD4F04687868C06802230122B5
:2034C0004FF0E046002503EA080B027016EA09060D7008BFBBF1000F32D14FF4803015EAED
:2034E000090700EA080008BF00281AD129464FF4003011EA090700EA080008BF00280CD145
:203500004FF4800011EA090100EA080008BF00280AD025710DF016FB06E025710FF09AFF70
:2035200002E0257152F06CFD20202F4600EA080017EA090708BF00282DD012F08DF92AE032
:20354000AE4991F90000002803DD91F90000401E0870514691F90000002803DD91F90000CF
:20356000401E08704FF0807705EA080017EA090708BF00280CD0A24991F90000002803DDEF
:2035800091F90000401E08706046027012F00AFB25710DF0D7FA9AF9000058B1002E08BFB7
:2035A000BBF1000F00F023819AF90000002800F31E810CE193487D4F05703868D0F8582482
:2035C0002946084612E1794A01232027002552688E4ED268DFF840B2137017EA09070D703E
:2035E00005EA080108BF002966D12A464FF0E04702EA080017EA090708BF002839D184490B
:20360000DFF810C24FF4860012EA090700EA080008BF002816D17C4812EA090700EA0800A2
:2036200008BF00285BD006F12800B480B9F1000F80E8000308BFB8F1806F50D108880228BF
:203640004DD10EE006F12800B480B9F1000F80E8000308BFB8F5803F41D10888B0F5505FBE
:203660003DD1304680686746436938682146984735E0624991F900004FF0807702EA080229
:2036800017EA0907A0F10100087008BF002A03D06046037012F086FA5A46B2F9000084429F
:2036A00001D10DF04FFA6FF001005146B08091F90000401E087012E06FF001015A46006810
:2036C0001180017859B155480078832802D0544981200870316911B128468847B480474F2B
:2036E000AB4602201BEA090300EA080008BF002851D04C49B1F8460143F20141814229D0EC
:20370000C91C814226D04749C98E43F604028A4220D0B6F9043097F900109C42A1F1010134
:20372000397002D0824220D11DE006F1280003C84FF482022C4610400C4008BF002802D1DB
:203740000DF000FA11E052F05BFC0EE0242900201D290020707897F90040401C7070601EB5
:2037600038700DF0EFF911F0A3FB2E480F4BA0F8465118686FF00104D0F8B800B48001780D
:2037800011B12948017809B912F00CFA9AF90000401E8AF8000097F9001009B91948057008
:2037A0009AF90010E1B103E01C2900201401002002224FF0E041104611EA090700EA08027E
:2037C00008BF002A13D09AF9000000280FDC17480068D0F84C05804709E0C046E43C002099
:2037E00012480068D0F858242946284690470F484068C0680570BDE8F88FC04625290020D3
:20380000262900201A29002000000C8C18210020DE1B00200C2500201C210020763F002049
:20382000713F0020981A0020733F002014010020B0B50446BC480768ADF1480D002F00F0AB
:20384000AC812078401E122800F2A781DFE810F06E0157013D01280120010901F600E800F3
:20386000C800B700920067005D004C00A501340026001C0013007B6C002B00F08E810020C7
:20388000A21C0146984788E1F86B002800F08581684621460AF0C0FFF96B7CE1386C0028FF
:2038A00000F07B816846002101220CF043F960788DF80000396C6EE1F86A002800F06D8139
:2038C000684600210E220CF035F9A11C684612F02DF9A57BA1890022ADF80A1005B1012228
:2038E0008DF80C20F96A57E1B86B002800F055816846002102220CF01DF9A5788DF8015073
:2039000060788DF80000B96B45E1786B002800F04481684621460AF07FFF796B3BE1386B10
:2039200008B36846002114220CF004F9A5788DF80150A3680193A289ADF80820A17B8DF8A3
:203940000A1060788DF80000E57B8DF80B50237C8DF80C3094F911208DF80D206169049181
:20396000396B684688476068002800F0168111F03BFC12E1B86A002800F00F8168460021EB
:2039800024220CF0D7F86078A11C8DF800000DF1020012F0CBF804F10C0103A812F0C6F8CA
:2039A000257EE08A04F119018DF818500B22ADF816000DF119000AF08BF8B96AEBE0786AB2
:2039C000002800F0EA806846002102220CF0B2F8A5788DF8015060788DF80000796ADAE0DF
:2039E000386A002800F0D9806846002112220CF0A1F8658862796078ADF8025023798DF864
:203A00000520E11D8DF80000A5798DF804300B220DF107008DF806500AF05AF8396ABAE091
:203A2000F869002800F0B9806846002101220CF081F860788DF80000F969ACE0B86910B140
:203A400020460EF033FBA07820B9A069002800F0A48003E0A069002800F09F800FF09AFBE7
:203A60009BE07869002800F098806846002113220CF060F86D46A01C0168406829600B222C
:203A8000686004F10A0102A80AF022F8796982E03869002800F08180204609F0B3FA7CE03A
:203AA000F868002879D0684600210E220CF042F86078A11C8DF800000DF1020012F036F8B6
:203AC000A089ADF80C00F96865E0B868002864D06846002114220CF02DF8A01C01686D46EC
:203AE000296040686860A07A0B2204F10B018DF808000DF1090009F0EBFFB9684BE07868E2
:203B000000284AD06846002110220CF013F860786588211D8DF800000B22ADF8025001A806
:203B200009F0D6FF796836E03C2600203868A0B36846002119220BF0FDFFA01C01686D4672
:203B4000296040686860A07A410824BF01218DF80810810824BF01218DF80910C10824BF8F
:203B600001218DF80A10010924BF01218DF80B10C10924BF01218DF80C1030F07F001CBFEB
:203B800001208DF80D000B220DF10E0004F10B0109F09EFF39686846884712B0B0BD70479E
:203BA0002DE9F04FCB4C60692589216AA689806DADF1240D2A468919083109F089FF761951
:203BC000B0B26669B16D4919C34DB1652968D1F8D41091F88370216A0B1808331B780DF1DA
:203BE0001E021370DFF8F882022F00F1010080B208D141180A7A66694346591C0A70216AF4
:203C0000401C80B20A180832126802A9001D0A6080B2A081042102A811F056FC02900346BE
:203C200012F0D0F9F063184611F0D0FDA6F84000EA2010F0C1F9A9484FF0020B022F80F8B2
:203C400000B00BD168684069007838B14146087810B94878FF2801D00420E0706769E078DA
:203C6000397C084338749DF91E0012F0CCFC87F8460007F17406BE6539899DF91E007B6867
:203C800087F84800B7F85C004FF00008401AC01801467860B88987F84780820A18D20209B2
:203CA00026D310F0070F07D000F00700032812BF081C7868401C17E07968C87800F00702BA
:203CC000401000F0380000EB42004018001D0BE02868D0F80813384688476769786E10B1A8
:203CE000B7F8680090B178687861B889000918D297F8600020B32868D0F80C1338468847F9
:203D00006769F86CE0B1B7F85000C8B92868D0F8541204F114008847404660610CF012FF74
:203D2000D4E02868D0F8B41438468847787067697E78B86978651EB1F22010F03DF96769CF
:203D40002E68D6F8B8100878002800F0B780BA89DFF890A1089202F00702022A68D1637848
:203D6000002B65D17B78002B62D161698DF81F800DF11600283112F039F9616928314F6828
:203D800003A847600E8906810A680260574607F110022B681088401C1080D3F8B8006169D4
:203DA000436A486E0DF11F020421984704F1140938B92868006C006818B19DF81F1080F811
:203DC0006810666996F83000022813D12868D9F80030D0F8D4705A4607F1200103F128005E
:203DE00011F09CF830B907F116010DF1160012F0FDF866693C480078862809D1BAF8120014
:203E0000401CAAF81200B08900F010000EF024F92968B8310A68107830B1976C27B1606945
:203E2000394688472968B831D1F89C11484648E02E4A1378002B3AD0089AC2F30132022AA0
:203E400035D1787800287FF469AF69689DF81E00896853460870E6786769988A002E07F1BD
:203E6000280207F11C0C00F1010098820CBF414608212E68D6F8B8000378FBB11C4B404641
:203E800018600091CDF804C0D6F8D400117AD6F87863C38C0D20B04710B90DF08DFE01E015
:203EA00011F0DAFC2E68D6F8B8106769087828B1896C19B1384688472E686769D6F858122C
:203EC000384688474046606111F0E2FC09B0BDE8F08FC046D43C002014010020713F002057
:203EE00014210020A8270020763F0020733F0020B82800202DE9FE4F0090B74F01913868AC
:203F0000DFF8DCA2DFF8DC82B74D02924030D0F89410DFF8D89291F88320B0499B46012A31
:203F200000F084807A68D26801230024137056460C70036834701E6816B9D0F80C0580478A
:203F400002984FF0E24616EA0B0604EA000008BF00284ED10299A24608201AEA0B0600EAA9
:203F6000010008BF00283DD0464696F90000401E3070B5F8D60042F20146864202D0311D45
:203F800081420DD1484600680199826C0098904730B10088B5F8D61042F6014282420BD17C
:203FA000B5F86600B0F5105F21D1A96F48460C3001600FF0A1FE2EE0361D8E4214BFE12002
:203FC0001C2009F0D3FD98F9000028B198F90000002800F3FB80EAE03868D0F85824214636
:203FE0002046EEE0464696F90000401E30701D200FE0464696F900003D68401E3070286CF6
:20400000006840680078800902D210F027FE02E0E92009F0ABFD98F90000002800F0CC8015
:2040200098F90000002800F3D180C0E07A68D2680123137000240C7001680E6816B9D0F80A
:204040000C058047484600680199826C009890476749029ADFF89C910B8814EA0B064FF06A
:20406000020606EA020108BF002931D121464FF0E246114016EA0B0608BF002919D14FF406
:2040800086012026114016EA0B0608BF00290AD1002874D0008840F6030181426FD01D20B9
:2040A00009F064FD6BE0019900985B46FFF7EEF965E0464696F900004D46401E307028781A
:2040C000862802D010F0CAFD59E00FF0C3F956E0464696F90010DFF820C15246491E3170EC
:2040E00043F20841994214700AD0B5F87E2001F1020E9E4504D0914202D07146914212D1F3
:2041000078B1008843F6030181420AD007F00AFA96F9000000284FD096F90000002855DC5B
:2041200045E0B5F87E20B5F8F61043F6040088422ED090422CD098422AD0B5F84E209042C8
:2041400026D0B1F5505F05D0080B16D31D2009F00DFD12E0294800684E4600F5C070CCF8BB
:2041600014003078862802D00FF0C6FD05E001990098029A5B460EF0D5FA11F013FD464683
:2041800096F90000C0B196F9000000281EDC0EE01B480078022816D0032814D007F0C2F9D4
:2041A00096F9000040B196F9000000280EDC3868D0F84C05804709E03868D0F8582420462B
:2041C0000146904702E0204609F0D0FC7868C0680470BDE8FE8FC046140100201C29002066
:2041E0001B29002024290020981A002020210020321B0020763F00201821002028010021D6
:20420000A92700202DE9F04FAD4E4FF0000A8146ADF1140D57467069CDF808A0CDF80CA03B
:2042200010B1804700B90B27F078002F40F0978096F8314096F832700146B9F1000FA1F16C
:2042400001011FFA81F818BF012155464FF0F80B86F83F1022E0AF421ED0F06869036A46D2
:20426000042312F0E5F8009911F4403F1CBF0AF101005FFA80FA01F0FF017C2918BF782963
:2042800009D1284606215A4611F0F8F90C2015FB006080F848B0F0786D1CEDB2A842DADCE1
:2042A000401E50455BD0B8F1000F06F1300500F0CF8003984FF4005B019096F83F30F0689E
:2042C00013B9012186F83F106A466103042312F0AFF8B9F1000F05D00099F07811F4403F2C
:2042E00040F09B80009800F0FF00702803D0204670210FF0DDFFF06879036A46042312F002
:2043000097F8009800F0FF00FE2803D03846FE210FF0CEFF38460621FE2211F0AFF9B800FF
:20432000FE2300EBC700FF2186F83C70A200A6F840B0401986F83D4000F1180A8AF8003017
:20434000019B86F83E1002EBC4004019A6F84430808BA6F8420000F03FFB102801D100209A
:20436000AAE0B9F1000F0CBF10214946B9F1000F07D0B6F84000C0F50050814207DC012025
:204380000390B6F84000C0F50050814201DD782100E07C2138460FF08BFF06F07FFE96F8D8
:2043A0003F300446A8EB04000621FC221FFA80F8181B86F83F00384611F060F9FC208AF871
:2043C0000000029A96F83210F078091996F83E400C27891891FBF0F24243891AC9B286F878
:2043E0003210491C91FBF0F24243891A86F8311014FB0751898B102905D1611C91FBF0F24C
:204400004243891ACCB20198B9F1000F96F83270029019D00398B8B11AE096F83F30641C7E
:2044200094FBF0F1A8F101024143A6F840B01FFA82F8581E641A029986F83F00E4B286F86B
:204440003D40481C80B20290B8F1000F7FF435AF7C200FF071FB0446FF2C1CD17E200FF0A2
:204460006BFB0446FF2C16D196F831400C2014FB0050807DFF280AD0F27896F83200801830
:20448000401E90FBF2F15143401AC4B203E020467E210FF00DFF0C2086F8334014FB00507D
:2044A000808BF08696F83200FE210FF001FFB6F84000C0F5005000B205B0BDE8F08FC04619
:2044C000602200202DE9F84F07469A4D9A4C28684030D0F89410267891F883B026B1D0F85E
:2044E0000C0580472868403001680E6816B9D0F80C058047A1460120904C89F80000012F01
:20450000677040F2AF80DFF83882DFF838A2BF1E54D07F1E3CD07F1E00F0C0807F1E21D01C
:204520007F1E40F0B6802968096C096891F86D20628191F86E70002F06BFE070071CE770E3
:204540006868406856460178307810FB01F0784381004046C16690F8701021F00F0141F0E7
:20456000030156E0BBF1010F40F0AA802968D1F8D420096C09680020C98A6071C90934BFAE
:2045800092F8251092F84E10A17011F037FE97E00026BBF1010F66710DD12968D1F8D400F1
:2045A00090F85300D1F83C148847C07B022802D1304608F071FF0EF0ADFF81E062482F68D6
:2045C0000668D7F8D40090F88300012824D09AF800008700F06B8047DAF804103C23401AC8
:2045E000B0FBF7F1B1FBF3F25A43891A227812FB03F0401A3C301FFA80FAF06B804707FB40
:204600000A014046C16690F8701021F00F0141F0020180F8701053E09AF800008700F06BE6
:204620008047DAF804103C23401AB0FBF7F1B1FBF3F25A43891A227812FB03F0401A3C3050
:204640001FFA80FAF06B804707FB0A014046C0F8FC1090F8001121F00F0141F0020180F8E8
:2046600000112DE0002029686071D1F8D400096C0968C98AC90934BF90F8251090F84E105C
:20468000A170B7B9C078A0B10229C4BF0220A0700FE02868D0F84C05804711E02868006CE4
:2046A000006890F86910617190F86A00A0700027A77100F0CBFA2868006C0068002836D037
:2046C0002248007898B92868403001680F682FB9D0F80C0580472868006C07687A68617819
:2046E000107800F0200020719078E07100E06178032903D0022918BF062918D111F061FF05
:20470000617802290CD01249097811B91149097831B1022189F8001052F066F8BDE8F88FD6
:20472000832189F8001052F05FF80BF089F8BDE8F88FC04614010020763F0020A827002004
:20474000981A00205827002020210020D2380020713F0020733F00202DE9FE4F8B4605463C
:2047600011F02FFF944C012D029000F0E08020460068D0F838038047002800F0D3800DF01A
:20478000B3FD002800F0CE8021464968DFF840A28969DAF808000F783C30002F40F0C280D2
:2047A000864C0068257880476168E268AF00401AB0FBF7F6A06890460027B94611464645C1
:2047C0004B4673EB090301DA884206D839464A4686428A4140DA024600E039461046EB17A0
:2047E0002A46801BB94111F055FA0646794800680F46C18A00694018643080464FF00001F4
:20480000B6EB080677EB09077042B94124DA11F065FD02464B46394630460BF03DFE0F4611
:2048200006464FF000017042B94115DA11F091F80546206911F05AFC10B1206911F0ADFEA6
:20484000284611F0ABFA2069314611F0A2FE206911F0A1FE002000E0012059490870884671
:2048600098F8000000285DD153480068D0F894000078002739460CF095FA00B10127381C1D
:204880004DD14D480068D0F8D4004B4E90F88370706880690078002841D1DAF80800494C6B
:2048A000436C606902216A4698479DF80000002835D0BBF1010F4FF0010921D0424EDAF8B4
:2048C0000820606996F9001011F1020F06D0926B96F900109047DAF8082060693B4D95F913
:2048E000001011F1020F06D0926B95F900109047DAF8082060696FF001012970317002E00D
:20490000DAF8082060692C494968896981F80090D1698847012F04BF00208AF800000020F5
:2049200088F80000029851F05FFFBDE8FE8F2068D0F89400007801210CF034FA029851F009
:2049400053FF606880690078012819D110F0DCFC60B1606880690178012911D10021BBF1DD
:20496000010F01700CD011F041F909E011F029FE6168896902220A7051F036FF0AF0E0FEE7
:2049800010F0C2FCB0B960680C30C1680978022909D101680F7837B12068D0F84C058047FD
:2049A000241D20680C3001680F781FB9C16808780228FCD0BDE8FE8F140100205827002085
:2049C000743F0020F82400201829002019290020182100200C2500202DE9F04F994E96F891
:2049E0003D0096F83F10F37896F83C800027ADF12C0D0918491E91FBF3F296F83D407770FF
:204A00005A43891AC9B20891810001EBC0018919B1F84C0096F83C10ADF81C00880000EB6F
:204A2000C1008019B0F84C50CDF8248006A80EF0C9FE70780A97A04500F0A180B946CB466D
:204A4000BBF1010F00F09080BDF81C10162966DD002840F09580BDF81C0001AAC01F81B23C
:204A6000ADF81C10204608F049FFBDF81210BDF81C30884608F1070008F1100287B29A42F9
:204A800046D89DF80E00962842D19DF80F00420839D2800837D3BDF81C0000230093A0EBE7
:204AA00008001FFA80FA9DF80D20BDF81C002346401A80B20FF032FAF8B9E819B0F5005FF2
:204AC00015DCF068C5F188520AEB443A3B46D21B514602F5005211F0ABFCED1909F101098A
:204AE000ADB2B5F5005F08BF4FF0010B0BE0BDF81C004FF0010BC01D2EE0BDF81C00401E1B
:204B0000ADF81C0004E0BDF81C00A0EB080023E0204607A90CF0E2F801281FD030E0F2780B
:204B2000B9F1000F07D0484BBDF81C70A10001EBC401C9188F830899A14220D04249641C4D
:204B400094FBF2F05043241AE4B2A00000EBC4004018808B4FF00009ADF81C000999707838
:204B6000A1427FF46DAF0AE0B9F1000F07D0364ABDF81C70A10001EBC40189188F8320B1B2
:204B8000069810F04FFF102059E0DDF824804FF6F0704FF40051C5EA0040C5EA0141E1FA53
:204BA00040F01FFAA0F283B2102102F1885240460DF0BAFE717808437070069810F032FFC9
:204BC000A0450FD1F278204F1019401E90FBF2F15143401AC4B2A00000EBC400C019808BAB
:204BE000ADF81C00184FBDF81C00A6F840504FEA8801A6F8440001EBC80186F83E40C91957
:204C00008D83B6F9422096F83D10012340460FF0C1FF96F83E10B6F94420022340460FF096
:204C2000B9FFBDF81C001628DCBF01200A90B5F5005F03DB0A9840F002000A900A980BB0A5
:204C4000BDE8F08F60220020902200202DE9F84F8C4E4FF000088C4C30688DF80080D0F801
:204C6000D400A57890F883B011F019FC4FF0010A4FF6FF710AFA05F289180140306861811C
:204C8000D0F8B800824D077847B3826B32B342F21A00694690477D4867790378C3B1BFB99A
:204CA0009DF80030A3B13068D0F8B800C06D78B180472978071C0AD0706840686389007824
:204CC000083010FB01F0B7FBF0F15818608167799DF80010608907FB01006081607800286A
:204CE00040F0B3806B483768016807F1D4000268DFF8A49192F88320012A33D0D0F88801A8
:204D00008047A1782A78002800F09B803368A9F8E280D3F8D43093F8314089F8E44093F845
:204D2000243089F8E53099F8E63043F0200389F8E63099F8E6305043800023F01F0343F0D3
:204D4000020389F8E63099F8E630C9F8F00068F3871389F8E63089F8E78089F8E81089F8F1
:204D6000E98074E0C86B804704460BF0A7FC07462878810007FB01434C4604F1A40210782B
:204D80004FF0020C6CF3030010707068C4F8A030406894F80021007868F30302083080B2E9
:204DA00001FB003194F8883084F80021604660F3030384F888303068C4F88410D43001685D
:204DC00091F8831001293CD1D0F888018047C0B36868D4F88410884233D294F8A40004239F
:204DE00068F3030084F8A4002A787568C4F8A08012FB03F001B2686894F888300078083063
:204E000080B2414323F00F0040F0030084F888004FF4FA55C4F8841094F88C00A4F89A80D3
:204E200040F0080084F88C0094F88C00C4F894506AF3041084F88C0007FB02F00FF0ACFD65
:204E400005E01C2008F092FE01E002F0A7FDBBF1020F14D13068006C006880B10F48114942
:204E6000007848B90E48007830B98322084602700AF0E6FCBDE8F88F022208460270BDE80C
:204E8000F88FC04614010020A8270020D23800205827002020210020981A0020713F002095
:204EA000733F0020763F0020FEB5071C00F0AF80F96B002900F0AB80B7F84000002800F0A7
:204EC000A6800E78002017F1300103D097F83810052902D0002800F09A80387A03280AD139
:204EE00038460FF0DDFB4FF6FF71814200F08F803880022139727B4C7B4DA06DB61E56D0CA
:204F0000B61E38D0761E7FD0F61E7AD0361F74D0701F7CD1B7F84000032878D1F86B42787F
:204F20008178481E0A2807D8DFE800F01C1A18161412100E0C0A08C035A314E036A312E02D
:204F400038A310E03AA30EE03CA30CE03EA30AE040A308E042A306E044A304E046A302E0F9
:204F600048A300E049A300920191E86C696D49A204F00CFDFEBDB7F84000012847D13846DB
:204F80000EF04AFE78B14289510B0CD34EF6FF711140418141F40051418141F288300EF0A4
:204FA00089FF0FF0CDFFA06C401CA064FEBDB7F840000D282BD138460EF02EFE38B14289FB
:204FC0004FF6FF611140418141F400714181E86C696D3B883DA204F0D9FC0FF029FA0346B1
:204FE000A96DE86C3EA204F0D1FCA01D042110F0F6FE606D401C6065FEBD38460BF000FCB2
:20500000FEBD401CA065FEBD3846FDF785FEFEBD67656E65726963006363323635327262C3
:2050200000C046C0636332363532723100C046C0636332363432723100C046C06363313385
:205040003532703400C046C0636331333532703200C046C0636331333532703100C046C08E
:20506000636331333532723100C046C0636331333132723100C046C063633236343072320A
:2050800000C046C063633133353000C063633133313000C053656E736F72202D20446576AA
:2050A0006963653D25732C2044657669636546616D696C7949443D25692C2044657669635D
:2050C000655479706549443D256900C0436F6E666967527370202D203078253034782000F0
:2050E000257800C050200020E41800202DE9FE4F8A46934680460021022268460AF01AFDD1
:20510000844F78798DF8008028B107F1A40011F0D9F800207871B7F96E405FEA080007F1CF
:20512000A4054FF0000600F0A2800D3800F0A28072386AD07B38012840F29C80801E00F07C
:205140009480401E00F08A80401E00F08380401E79D0B8F1300FC0F28D80B8F13A0F07DB70
:20516000B8F1600F40F38680B8F1670F80F282800321601E90FBF1F094FBF1F3201A401E32
:20518000C0B24FEA600903FB01F0241A012C10D0022C1ED115F8094068463146102224F0E3
:2051A0000F0405F8094004F059FB044305F809400FE015F809003146102200F00F000446CA
:2051C00005F80900684604F049FB44EA001005F809004C4650482A5D396D005D02EA0009F6
:2051E000F86C4A4503D138A204F0D0FB04E037A204F0CCFB05F8049097F86E0001213222D3
:205200000B4610F0ACF9044621E00321601E002C90FBF1F0A4EB0000A0F10100C0B24FEA47
:20522000600227DD94FBF1F04843201A022805D0012813D1A85C40F0F00002E0A85C40F08D
:205240000F00A8540AE0284610F0D2F90124A7F86E400FE00124A7F86E4008E00121E0B2B1
:2052600032220B4610F06CF9CDE7E0B2C6E7284611F028F8112715F8010B01A902220DF086
:2052800027FDDAF800001EA1098880190180DAF80000731CD9B2401801A90FF054FDF31C61
:2052A0007F1EDEB2E7D1B8F1000F0BD0DAF8080014A10F2208F00CFC641CABF80240012030
:2052C000ABF80000BDE8FE8F00C046C0496E76616C696420696E7075742E204F6E6C79200C
:2052E00075706461746564207769746820737570706F72746564206368616E6E656C730079
:205300002000C04620202020204348414E204D41534B00C0E4180020451E00002DE9F04FCD
:205320007A4CA068416EADF12C0D02A88847DFF8E0A1DFF8E0B19AF9000038B1594691F93B
:205340000000002818BF002040F0DC8011F039F9DFF8C4910A9099F80000800806D27D201B
:20536000002107F0CDF90025079001E00025079502958DF80C50059503208DF81800DFF848
:205380009C81C8F87C51A8F8765198F88F7198F88011634B012665F3030166F3000788F83A
:2053A000801198F8801188F88F7166F3C71188F8801198F88F1166F3410188F88F1198F8FE
:2053C0008F1165F3820188F88F1198F88F1165F3C30188F88F1198F88F1165F3041188F8A9
:2053E0008F1198F88F1160F3461188F88F111868D0F8282408F5C871F4209047494807784E
:205400009FB94846A768007880090FD3F86B8047C8F87C0198F8801121F00F0141F00201D7
:2054200088F880118DF80C600290A7683F4A3E484FF080738DE80C003F6D3D4B006808F56E
:20544000BA79494602AAB8470028608006D5022041F288310BF06EFD2E464FE0594691F9BC
:205460000000344F401C087097F90000401C38709AF90000C4F80C902946401C8AF8000009
:2054800002200BF057FD264F26483968057001F1AC021068077807B18025B4F84C00176837
:2054A0004FF67F7303401D432843A4F84C0098F88C21387860F3C71288F88C21D1F8D400DC
:2054C000C28CA4F85A20428D00F14403A4F858201A6804F14F052A6058686860D1F8D400D3
:2054E000C18CA8F8A611418D00F14407A8F8A4113A6808F5CE742260786860600A9851F0C3
:2055000073F930460BB0BDE8F08FC046182100202629002025290020723F0020981A0020EB
:20552000140100201D2900200C250020200043008D340000242900202DE9F04F814DA868BB
:20554000416EADF12C0D02A88847A8467E4C7F4DA178606902290FD170B1002007F04CFB5C
:20556000D8F80800416860698847281D0068806901210170002060614FF0010A002684F81C
:2055800002A00028059630D10BF02CF8D8B10BF029F8012817D00BF025F8052813D00BF0AE
:2055A00021F80C280FD00BF01DF80D280BD00BF019F80B2807D00BF015F80E2803D02868E8
:2055C000D0F84C058047D8F8080000F1200130B92868D0F84C058047D8F8081020310968FE
:2055E00004F1200088475148E0630FF03DFC2968D1F8D40090F85300D1F83C148847074675
:205600002868D0F8D40090F942000BF0DFFEB0F1FF3F05D0010828BF4FF6FF70444908804E
:2056200038897968DFF80C913B6832464FF47A7BA9F81661401EC9F81821414303EB5100CE
:20564000B0FBFBF0A9F8340199F821016AF3030089F8210199F820016AF3C71089F82001A0
:205660002868D0F8C4038047F8B9B88932496F68BBFBF0F0C0B208707968BBFBF0F0087091
:205680002868D0F8D40090F85300022806D00EF079FC032809D105215C2001E00221A8201D
:2056A000264A11706968096808706769D8F80860A168DFF88CB03FB3002007F09DFA2A68E9
:2056C000D8F808106069D2F8D420637892F853200F4693420AD0496888476868806980F8CE
:2056E00000A0D8F80800A16806680EE0022100228DE806003F6D09F58A76002302AA31461D
:20570000B847C8F80C6008E0366809F58A7904F1200358464A46B04760612868D0F8D400AD
:2057200090F853000BB06070BDE8F08F54F10080C61B0020981A002058270020A8270020B9
:20574000B833002018210020F8240020140100202DE9FE4F9B4615468946824610F031FF0E
:205760007B49019008680CAF504508BF48687B4C6FF0010828B1B03010F0B8FC002840F0A9
:20578000D6800FF017FB061C00F0DB8004F5C07010F003FF0023B4F9A800C6F80C90401CDC
:2057A00086F832306FF31F30A4F8A800C6F808B0B4F8A80030866748C6F810A097E80C00EC
:2057C00020210027B8461940104006F1180383E80300424686F8332006F1200383E88001DB
:2057E000E8683064287C86F8440028687063287986F83800A868F0636869B064A869F064F8
:20580000287F86F85000687F86F851002F7C27B9EF6817B1012086F844002F795FB999F87F
:205820000C0000F00F00022805D1012086F83800D9F808007063484608274568002D18BF6C
:20584000002F70D100886FF30900B0F5305F18BF022506D196F83300082540F0100086F830
:20586000330006F1180090E80C00414606F1180745EA0200194387E80300D4F8CC00824567
:2058800007D194F8D000410824BF00F0FE0084F8D00031480768002F39D004F19400009035
:2058A000D4F89C10D4F8A02004F18C052B463046B84710F1030F10D0B6F93010B4F9A82021
:2058C000914207D0B4F9A81001F6FF716FF31F31A4F8A81010F1020F1BD010F1030F18D054
:2058E00096F83300B6F9308040F0800086F8330000278AF8F4702868864205D0F068007B1A
:2059000000F00F0002281CD10BF07EFA19E06FF00200B4F9A810804601F6FF716FF31F3160
:20592000A4F8A81005E07F1E2846FFB285E76FF0020894F8D00040F0040084F8D000C4F805
:20594000CCA0019850F050FF4046BDE8FE8FC046C42A0020FFEFFF9F90200000182A002049
:205960002DE9F04F734C724FE06807F5A271ADF12C0D814207D1704890F90000002818BF49
:20598000002040F0D18010F01CFE0025DFF8CC810A90D8F80000A7F84651D0F8B80000786B
:2059A000002807BF4FF4860AAB466EA090E8000CA068416E02A888470320604E8DF8180005
:2059C00030780595800807D27D20294606F098FE8DF81850079000E00795C7F84C51584B8D
:2059E00097F85001574AC7F8643165F3030087F85001E3685069B44607F1340607F134014A
:205A00009E420CD0B7F84420B0F840309A4206D1B7F84220C38F9A4208BF4F4914D04E4ECE
:205A2000FD86494BBE6301221A7097F8412022F00F0242F0020287F84120FD6397F8402009
:205A400065F3030287F84020DFF8009199F800700E46FFB9D8F80010D1F8B8100F781FB9C5
:205A60009CF80010890915D339490F7837F07F0710D1A068C06B8047B060307B012720F084
:205A80000F0040F002003073B0688DF80C702D4B02905869A1680F6D2E4B02AA8DE8000C13
:205AA0003146B8470028608009D50A9850F09CFE022041F288310BF03DFA284634E01E49E5
:205AC000274F91F90000244E401C087097F90000E6602946401C387002200BF02BFAD8F825
:205AE0000000AC3001680F7889F8005007B18025B4F84C10806A4FF67F720A401543294376
:205B0000A4F84C10C18CA4F85A10418D00F14407A4F85810396804F14F0631607868706000
:205B20000A9850F061FE01200BB0BDE8F08FC046981A00201821002025290020723F0020B4
:205B400000C42264F82400201C2900201D290020763F00208D340000DC1B00201401002012
:205B60002429002000004F8C200000012DE9F0470646F08917468946ADF1280DC01D80B29C
:205B8000054608F0BBF97A4CFF280BD12846FEF739FB854204DD641C207800B90520E3E04D
:205BA000012000E000206178D9B917B1022F18D1B8B1307A8DF80C00F788ADF80A70B588F8
:205BC000ADF8085000230093E18E94F8330001AA032302F05FFA9DF814003074BDF8107046
:205BE000B78194F83310E58EE06806AA04238846490310F01DFC069800F0FF0100F0FF005C
:205C00007E2806D140467C210EF052FB069901F0FF017C2940F0A580F08942F20102C11D81
:205C20008FB2E9198A4240F39A80F188327AC1F301238DF81D10B18843EA82038DF81C309D
:205C40008A1006468DF81E200423C0F3851201F0030142EA81128DF81F2010FB03F1F21DA4
:205C600001F0FC01731990B28DF820101FFA83FA0D282BDB48463146002210F047FB024631
:205C8000052107A810F042FB9DF82010334600F03F064A4641EAA011B0008DF8201040F07E
:205CA000020096268DF8210029468DF8226040460CF03AFE0646514607AA07234046667036
:205CC0000CF032FE304360704DD135E004F124004946324607F0FCFE07A90A68301900F1B5
:205CE0002409484609790260731D0171002204F1240099B210F00AFB9DF82010962300F00A
:205D00003F068DF8223041EAA011B0008DF820103B4640F0020007AE49468DF821003268EF
:205D2000B0790A60B288887140468A8004F1240229460CF0F9FD6070E18EED194FEA880685
:205D4000AAB2C919E18606EBC8010919A1F84C2048B1404651460CF0DBFB607803E00520F5
:205D600000E001206070C0B20AB0BDE8F087C046602200202DE9F047DFF8B4910E46D9F8D4
:205D800008101F4615460446ADF1300DBEB1B5B130784FF0010808FA00F001420FD01046D7
:205DA000002110F016FCA560666010F00AFC614D82462878022804DB504650F015FD0020B8
:205DC000B2E000286CD101F02FFD5B495B4E086840F00200086008A8C9F8006010F0C6F9C8
:205DE000574E5849707808AA0A9005F1D4000CF08BF8554905F5847008AA0CF085F808A879
:205E000010F084F9192108AB3078504A099005F154000DF01FFC4E4A05F170001A2108ABEF
:205E20000DF018FC4B49002205F59E7013460DF030F94949002205F5C07013460DF029F9BE
:205E400046480068C0F3814030B1454A05F12800042100230EF0B2FEB078012802D10E2002
:205E600006F0ACFC05F194000FF0EEFF05F18C000FF0EAFF002185F8241029762962072081
:205E800085F8280285F82510364B1970A9600526E960354A2E610420EA610EF09DFF28786B
:205EA00005EB8001401CC1F8AC40C0B22870504650F09AFC1FB9684610F00CF86F4638681B
:205EC0004FF4FA76E6602060B86941466062388A6175E082F869E062786800280CBF40F639
:205EE000C410002120612148E06120622175A061F86800B1E061786900B12062B86800B132
:205F0000A061C82204F13000002109F013FE04F1480000210EF07AFC1549002204F1B0004F
:205F200013460DF0B6F820460CB0BDE8F087C046CC210840182A002000200940110000E028
:205F400008200000855A010095BE0000B11A01000D0A01004952010041570100B44F00507A
:205F6000A9250100D3380020BDAE00009F3B0000376501002DE9F04F754C0646A068D0F813
:205F80000001807AADF15C0DC00008F0B9FB00280C9008BF1A2400F0D6804FF0010AF07DCD
:205FA0008DF848A006F118018DF849000A680DF14A073A604A687A60097A397210F001FB85
:205FC0001590A068D0F888240DF1460181209047B07D00283DD004208DF803A04FF00008EE
:205FE0008DF80400B78A8DF80280A568ADF80070D5F894246946D22090474FF6FF79C346EB
:2060000045461DE0C00043F800B0B18AC0188180DCF80020D42008A9904702E04846ADF8B4
:2060200004008DF80780B08A8DF806803B68ADF80000D3F894246946D12090476D1CADB2E1
:2060400004F108073A6802F580721068C088A84236DCB08A00279DF84920ADF838000DF1BB
:206060004A018DF83A700DF13B0007F031FDA068D0F894248DF844A00EA9D0209047071CB6
:2060800018D1B08A31461022ADF808000DF10A0007F01EFD3069A7680790D7F8942402A9FC
:2060A000D3209047071C02D10C9838B104E00C9820B101E00C9808B10DF06CF8FCB23FE0CE
:2060C000ADF80250B08AADF80000D2F888236946D12090470028A1D1BDF8040081459DD078
:2060E000ADF82000A068D0F8882408A9D420904704F1080718B10C9808B303461CE03868D2
:2061000004F108073B6800F2944CD3F8000190F80AE00C9B404601E0401CC0B2864507DD3D
:2061200003EBC0018988894502D0B28A8A42F3D186457FF467AF13B118460DF02BF8192460
:20614000159850F051FB204617B0BDE8F08FC0460C0100202DE9F04F704C002704F18C00C9
:20616000ADF1140DB946B846056802978246CDF80C9025B3D4F8A000B84203D1D4F89C00BA
:20618000B8421AD0D4F89C60F6B1D4F89C1028690969884218D195F83300400914D3012766
:2061A000D4F89C00C06840880028F9D0D4F89C00C06840880128F3D006E0012704E004F16B
:2061C000D400022110F013FA002D43D087F0010B03A802AA594608F003FD5FEA000809D0E0
:2061E000012F07D0039929B104F59E700FF0E1FD4D462FE0002D2DD04948066856B3B8F1C1
:20620000000F27D0039828BBCDF800B002980190D4F89C00D4F8A0100AF108035246B047E1
:20622000401E02D0401E08D014E0029800B9284601214B460091014605E001230093D4F850
:206240009C00D4F89C100069B1F930104A4603F0A1F860E0002F5ED0002D5CD0606829696B
:20626000884252D1B8F1000F0BD0039848B1D4F89C0030B9D4F8A00018B908200DF0B0FCAB
:2062800049E008200FF086FA95F8330004F1D406C0F3001028B950460EF0F2FEC4F89C001F
:2062A00004E050460EF0ECFEC4F8A000A8691D49C0430860A8694A6810434860E869C0432C
:2062C00041F8080CE86951F8042C104341F8040CEC68082029460EF07FFD20460EF058FDED
:2062E0002088A0F6020040B141F21E01401A04D041F6E671401A012803D8012021460EF07B
:206300006BFD4FF08041304603E004F1D4004FF4806110F06CF905B0BDE8F08F182A00202F
:2063200094200000101004402DE9F04F8246ADF11C0D01F079FA5F4800780AF053F95E4CEE
:206340000026012811D90C380FD0401E14D0401E012805D80FF04EFB022803D00FF04AFBB2
:2063600021680DE005211F2608E00FF043FB0228F6D101210E4601E00321072620460160B7
:206380004E4AD068C0F38150012804D112680120120E904006430FF0D1FEDFF828B1DFF882
:2063A0002081FF2240185B46401E471CC8F800007F1E03F8012BFBD1DAF80020002702F006
:2063C000FF03FE2B1CD0D4463B46012502F0FF04FF2C0ED0A04205D3A14203D805FA04F478
:2063E000264201D0022062E002F0FF0227430BF802305CF8042F5B1C02F0FF04FE2CE7D199
:20640000092006F0DBF93048C0F800A0374801210EF0FCF9364C00254FF00109A84609FA44
:2064200005F0064214D1074207BF05F0FF0141F4C0411BF805005AF82010244804F0C2FC48
:20644000E8B24FF0FF310EF0DFFEC4F8008001E0042020601A4800686D1C241D8542DED985
:2064600004A80FF053FE1A4C20781B4A05901948102104AB0DF0EEF868460FF077FE60681A
:20648000174902901548CDF80C806A460BF03CFD144951F80D0C20F4F85040F4005041F8A0
:2064A0000D0C114AC1F8FF9F4046C2F8009007B0BDE8F08FF63A002060290020A84F005026
:2064C0005C2900201C3D0020443F0020007FC76788200000B43D0020D1560100E43B00202E
:2064E000412F01000D3009402C00094028390020DC3700202DE9FE4F89469346804600218A
:206500000222684609F016FB6B4FB8798DF8008028B107F194000FF0E1FD0020B871654976
:2065200001F12200B7F97240037807F1940500264046FB280BDCFA2880F2838000286CD028
:206540000D387ED00E387CD0643848D007E0FC386ED0401E65D0401E5FD0401E32D0B8F1E0
:20656000300F6EDBB8F13A0F05DBB8F1600F68DDB8F1670F65DA0321601E90FBF1F0241ABA
:20658000641EE0B2441040080CD2285D3146102200F00F0082462855684603F05FF94AEACE
:2065A00000100BE0285D3146102220F00F0082462855684603F052F94AEA0000285597F822
:2065C000720036E04BB9084610222946813007F07FFA3046294608F065FD01242FE0032188
:2065E000601E002C90FBF1F0A4EB0000A0F10100C0B24FEA600224DD94FBF1F04843201A21
:20660000022805D001280CD1A85C40F0F00002E0A85C40F00F00A85403E028460FF05EFD85
:206620000FE00121E0B22F220B460EF089FF05E0E0B201212F220B460EF091FF0446A7F8DD
:206640007240102715F8010B01A902220CF040FBD9F8000010A1098880190180D9F8000035
:20666000731CD9B2401801A90EF06DFBF31C7F1EDEB2E7D1B8F1000F0BD0D9F8080007A190
:20668000152207F025FA641CABF802400120ABF80000BDE8FE8FC0462000C04620202020A6
:2066A0002044454641554C54204E574B204B455900C046C0AC150020E41800202DE9F04F84
:2066C000634D804605F108000068416EADF14C0D02A8884763490A68D432106890F8839088
:2066E0006148DFF860B10778002F00F09E805F48077837F07F0740F09880BBF81600524CCB
:20670000B9F1010F00F10100ABF816000AD000200590E06694F8703060F30303012084F81D
:20672000703019E0C4F8FC8094F8000120F00F0040F0030084F8000194F80031012060F3FB
:20674000C71384F800310027C4F8F87094F8013160F3030384F8013149683C4BC9681870B1
:206760000F781FB9D2F8842300219047B9F1010F01D10EF0D9FD0FF024FFA84604F1640781
:206780001290DFF8D0A0D8F80810F87BB9F1010F11D00025A4F86650294605F0B1FF0790F8
:2067A000D8F80800066D5246294608208DE80300106802AA15E0496E0AA8884704F1F407A6
:2067C0000025388A0D95294605F09AFF0F90D8F80800066D5246294602208DE80300106830
:2067E0000AAA1D4B3946B0471C495A460880118B002810D41A4991F90000B9F1010F00F13A
:206800000100087014BF6434F434C8F80C4012984FF0EAFF12E0491C88B22F46108312499A
:2068200012980F704FF0E0FF06E00F495A460027108B0F70401C10830FF00EF813B0BDE896
:20684000F08FC046A8270020981A00201B290020182100200C25002001D20000B028002019
:206860002429002014010020733F0020763F0020F8B5694C2168054614310868407F0028FD
:2068800000F0C880D1F8C000B5F84220C08C904240F0C080D1F8581305F128008847002851
:2068A00000F0B880206840690026467721687031486E90F8290028B16068816A022088478E
:2068C00021687031086890F82B0018B16068816A01208847287C400908D36068816A102054
:2068E00088472068D0F82813802088476068C16B202088472168C868D1F8FC14103088472B
:206900006868226841785269007800EB0120C0F30321517622685269C0F3003797762268C1
